{
  "contractName": "ERC721Escrow",
  "abi": [
    {
      "constant": true,
      "inputs": [
        {
          "name": "",
          "type": "bytes32"
        }
      ],
      "name": "_owners",
      "outputs": [
        {
          "name": "",
          "type": "address"
        }
      ],
      "payable": false,
      "stateMutability": "view",
      "type": "function"
    },
    {
      "payable": true,
      "stateMutability": "payable",
      "type": "fallback"
    },
    {
      "anonymous": false,
      "inputs": [
        {
          "indexed": true,
          "name": "from",
          "type": "address"
        },
        {
          "indexed": false,
          "name": "key",
          "type": "bytes32"
        }
      ],
      "name": "Deposited",
      "type": "event"
    },
    {
      "anonymous": false,
      "inputs": [
        {
          "indexed": true,
          "name": "to",
          "type": "address"
        },
        {
          "indexed": false,
          "name": "key",
          "type": "bytes32"
        }
      ],
      "name": "Withdrawn",
      "type": "event"
    }
  ],
  "bytecode": "0x608060405234801561001057600080fd5b50610183806100206000396000f3fe60806040526004361061003b576000357c0100000000000000000000000000000000000000000000000000000000900480635353d425146100a9575b6040517f08c379a000000000000000000000000000000000000000000000000000000000815260040180806020018281038252600d8152602001807f4e6f7420737570706f727465640000000000000000000000000000000000000081525060200191505060405180910390fd5b3480156100b557600080fd5b506100e2600480360360208110156100cc57600080fd5b8101908080359060200190929190505050610124565b604051808273ffffffffffffffffffffffffffffffffffffffff1673ffffffffffffffffffffffffffffffffffffffff16815260200191505060405180910390f35b60006020528060005260406000206000915054906101000a900473ffffffffffffffffffffffffffffffffffffffff168156fea165627a7a72305820c5972bb9facdcc3c180aa7d6d1cde8995df84f7010a8773af9ee93d3cdc175520029",
  "source": "pragma solidity ^0.5.2;\r\n\r\nimport \"./../client/node_modules/openzeppelin-solidity/contracts/token/ERC721/IERC721.sol\";\r\nimport \"./IERC721Escrow.sol\";\r\n\r\ncontract ERC721Escrow is IERC721Escrow {\r\n    event Deposited(address indexed from, bytes32 key);\r\n    event Withdrawn(address indexed to, bytes32 key);\r\n\r\n    mapping(bytes32 => address) public _owners;\r\n\r\n    modifier exists(bytes32 key) {\r\n        require(_owners[key] != address(0), \"Escrow doesn't exist\");\r\n        _;\r\n    }\r\n\r\n    modifier onlyOwner(bytes32 key) {\r\n        require(msg.sender == _owners[key], \"Only owner can execute\");\r\n        _;\r\n    }\r\n\r\n    modifier notOwner(bytes32 key) {\r\n        require(msg.sender != _owners[key], \"Owner cannot execute\");\r\n        _;\r\n    }\r\n\r\n    function _deposit(address from, bytes32 key) internal {\r\n        _owners[key] = from;\r\n        emit Deposited(from, key);\r\n    }\r\n\r\n    function _withdraw(address to, bytes32 key) internal {\r\n        _owners[key] = address(0);\r\n        emit Withdrawn(to, key);\r\n    }\r\n\r\n    function () external payable {\r\n        revert(\"Not supported\");\r\n    }\r\n}",
  "sourcePath": "C:\\Users\\SergiiBomko\\Documents\\GitHub\\lombard-bcua-hack\\contracts\\ERC721Escrow.sol",
  "compiler": {
    "name": "solc",
    "version": "0.5.2+commit.1df8f40c.Emscripten.clang"
  },
  "schemaVersion": "3.0.11",
  "updatedAt": "2019-09-22T09:06:40.616Z",
  "devdoc": {
    "methods": {}
  },
  "userdoc": {
    "methods": {}
  }
}