{
  "contractName": "ERC721FundableEscrow",
  "abi": [
    {
      "constant": true,
      "inputs": [
        {
          "name": "",
          "type": "bytes32"
        }
      ],
      "name": "_owners",
      "outputs": [
        {
          "name": "",
          "type": "address"
        }
      ],
      "payable": false,
      "stateMutability": "view",
      "type": "function"
    },
    {
      "constant": true,
      "inputs": [
        {
          "name": "",
          "type": "bytes32"
        }
      ],
      "name": "_escrows",
      "outputs": [
        {
          "name": "state",
          "type": "uint8"
        },
        {
          "name": "token",
          "type": "address"
        },
        {
          "name": "tokenId",
          "type": "uint256"
        },
        {
          "name": "funder",
          "type": "address"
        },
        {
          "name": "amount",
          "type": "uint256"
        },
        {
          "name": "duration",
          "type": "uint256"
        },
        {
          "name": "expiration",
          "type": "uint256"
        }
      ],
      "payable": false,
      "stateMutability": "view",
      "type": "function"
    },
    {
      "payable": true,
      "stateMutability": "payable",
      "type": "fallback"
    },
    {
      "anonymous": false,
      "inputs": [
        {
          "indexed": true,
          "name": "owner",
          "type": "address"
        },
        {
          "indexed": true,
          "name": "token",
          "type": "address"
        },
        {
          "indexed": false,
          "name": "tokenId",
          "type": "uint256"
        },
        {
          "indexed": false,
          "name": "weiAmount",
          "type": "uint256"
        }
      ],
      "name": "Published",
      "type": "event"
    },
    {
      "anonymous": false,
      "inputs": [
        {
          "indexed": true,
          "name": "owner",
          "type": "address"
        },
        {
          "indexed": true,
          "name": "token",
          "type": "address"
        },
        {
          "indexed": false,
          "name": "tokenId",
          "type": "uint256"
        }
      ],
      "name": "Unpublished",
      "type": "event"
    },
    {
      "anonymous": false,
      "inputs": [
        {
          "indexed": true,
          "name": "payee",
          "type": "address"
        },
        {
          "indexed": true,
          "name": "token",
          "type": "address"
        },
        {
          "indexed": false,
          "name": "tokenId",
          "type": "uint256"
        },
        {
          "indexed": false,
          "name": "weiAmount",
          "type": "uint256"
        }
      ],
      "name": "Funded",
      "type": "event"
    },
    {
      "anonymous": false,
      "inputs": [
        {
          "indexed": true,
          "name": "payee",
          "type": "address"
        },
        {
          "indexed": true,
          "name": "token",
          "type": "address"
        },
        {
          "indexed": false,
          "name": "tokenId",
          "type": "uint256"
        },
        {
          "indexed": false,
          "name": "weiAmount",
          "type": "uint256"
        }
      ],
      "name": "Refunded",
      "type": "event"
    },
    {
      "anonymous": false,
      "inputs": [
        {
          "indexed": true,
          "name": "to",
          "type": "address"
        },
        {
          "indexed": true,
          "name": "token",
          "type": "address"
        },
        {
          "indexed": false,
          "name": "tokenId",
          "type": "uint256"
        }
      ],
      "name": "Claimed",
      "type": "event"
    },
    {
      "anonymous": false,
      "inputs": [
        {
          "indexed": true,
          "name": "from",
          "type": "address"
        },
        {
          "indexed": false,
          "name": "key",
          "type": "bytes32"
        }
      ],
      "name": "Deposited",
      "type": "event"
    },
    {
      "anonymous": false,
      "inputs": [
        {
          "indexed": true,
          "name": "to",
          "type": "address"
        },
        {
          "indexed": false,
          "name": "key",
          "type": "bytes32"
        }
      ],
      "name": "Withdrawn",
      "type": "event"
    },
    {
      "constant": true,
      "inputs": [
        {
          "name": "token",
          "type": "address"
        },
        {
          "name": "tokenId",
          "type": "uint256"
        }
      ],
      "name": "getKey",
      "outputs": [
        {
          "name": "",
          "type": "bytes32"
        }
      ],
      "payable": false,
      "stateMutability": "pure",
      "type": "function"
    },
    {
      "constant": false,
      "inputs": [
        {
          "name": "token",
          "type": "address"
        },
        {
          "name": "tokenId",
          "type": "uint256"
        },
        {
          "name": "weiAmount",
          "type": "uint256"
        },
        {
          "name": "duration",
          "type": "uint256"
        }
      ],
      "name": "publish",
      "outputs": [],
      "payable": false,
      "stateMutability": "nonpayable",
      "type": "function"
    },
    {
      "constant": false,
      "inputs": [
        {
          "name": "key",
          "type": "bytes32"
        }
      ],
      "name": "unpublish",
      "outputs": [],
      "payable": false,
      "stateMutability": "nonpayable",
      "type": "function"
    },
    {
      "constant": false,
      "inputs": [
        {
          "name": "key",
          "type": "bytes32"
        }
      ],
      "name": "fund",
      "outputs": [],
      "payable": true,
      "stateMutability": "payable",
      "type": "function"
    },
    {
      "constant": false,
      "inputs": [
        {
          "name": "key",
          "type": "bytes32"
        }
      ],
      "name": "refund",
      "outputs": [],
      "payable": true,
      "stateMutability": "payable",
      "type": "function"
    },
    {
      "constant": false,
      "inputs": [
        {
          "name": "key",
          "type": "bytes32"
        }
      ],
      "name": "claim",
      "outputs": [],
      "payable": false,
      "stateMutability": "nonpayable",
      "type": "function"
    },
    {
      "constant": true,
      "inputs": [
        {
          "name": "key",
          "type": "bytes32"
        }
      ],
      "name": "isAllowClaim",
      "outputs": [
        {
          "name": "",
          "type": "bool"
        }
      ],
      "payable": false,
      "stateMutability": "view",
      "type": "function"
    },
    {
      "constant": false,
      "inputs": [
        {
          "name": "",
          "type": "address"
        },
        {
          "name": "",
          "type": "address"
        },
        {
          "name": "",
          "type": "uint256"
        },
        {
          "name": "",
          "type": "bytes"
        }
      ],
      "name": "onERC721Received",
      "outputs": [
        {
          "name": "",
          "type": "bytes4"
        }
      ],
      "payable": false,
      "stateMutability": "nonpayable",
      "type": "function"
    }
  ],
  "bytecode": "0x608060405234801561001057600080fd5b50612359806100206000396000f3fe6080604052600436106100ae576000357c01000000000000000000000000000000000000000000000000000000009004806385b9bc621161007657806385b9bc62146103b7578063a369f72e14610426578063b71f1b8014610495578063bd66528a14610574578063bf14c119146105af576100ae565b8063150b7a021461011c5780633b31fcd1146102805780634eaf0477146102bb5780635353d4251461030e5780637249fbb614610389575b6040517f08c379a000000000000000000000000000000000000000000000000000000000815260040180806020018281038252600d8152602001807f4e6f7420737570706f727465640000000000000000000000000000000000000081525060200191505060405180910390fd5b34801561012857600080fd5b5061022c6004803603608081101561013f57600080fd5b81019080803573ffffffffffffffffffffffffffffffffffffffff169060200190929190803573ffffffffffffffffffffffffffffffffffffffff16906020019092919080359060200190929190803590602001906401000000008111156101a657600080fd5b8201836020820111156101b857600080fd5b803590602001918460018302840111640100000000831117156101da57600080fd5b91908080601f016020809104026020016040519081016040528093929190818152602001838380828437600081840152601f19601f8201169050808301925050505050505091929192905050506105dd565b60405180827bffffffffffffffffffffffffffffffffffffffffffffffffffffffff19167bffffffffffffffffffffffffffffffffffffffffffffffffffffffff1916815260200191505060405180910390f35b34801561028c57600080fd5b506102b9600480360360208110156102a357600080fd5b810190808035906020019092919050505061060d565b005b3480156102c757600080fd5b506102f4600480360360208110156102de57600080fd5b8101908080359060200190929190505050610c03565b604051808215151515815260200191505060405180910390f35b34801561031a57600080fd5b506103476004803603602081101561033157600080fd5b8101908080359060200190929190505050610c6a565b604051808273ffffffffffffffffffffffffffffffffffffffff1673ffffffffffffffffffffffffffffffffffffffff16815260200191505060405180910390f35b6103b56004803603602081101561039f57600080fd5b8101908080359060200190929190505050610c9d565b005b3480156103c357600080fd5b50610424600480360360808110156103da57600080fd5b81019080803573ffffffffffffffffffffffffffffffffffffffff1690602001909291908035906020019092919080359060200190929190803590602001909291905050506110c3565b005b34801561043257600080fd5b5061047f6004803603604081101561044957600080fd5b81019080803573ffffffffffffffffffffffffffffffffffffffff169060200190929190803590602001909291905050506116c4565b6040518082815260200191505060405180910390f35b3480156104a157600080fd5b506104ce600480360360208110156104b857600080fd5b8101908080359060200190929190505050611738565b604051808860048111156104de57fe5b60ff1681526020018773ffffffffffffffffffffffffffffffffffffffff1673ffffffffffffffffffffffffffffffffffffffff1681526020018681526020018573ffffffffffffffffffffffffffffffffffffffff1673ffffffffffffffffffffffffffffffffffffffff16815260200184815260200183815260200182815260200197505050505050505060405180910390f35b34801561058057600080fd5b506105ad6004803603602081101561059757600080fd5b81019080803590602001909291905050506117c7565b005b6105db600480360360208110156105c557600080fd5b8101908080359060200190929190505050611ce8565b005b600063150b7a027c0100000000000000000000000000000000000000000000000000000000029050949350505050565b80600073ffffffffffffffffffffffffffffffffffffffff1660008083815260200190815260200160002060009054906101000a900473ffffffffffffffffffffffffffffffffffffffff1673ffffffffffffffffffffffffffffffffffffffff16141515156106e5576040517f08c379a00000000000000000000000000000000000000000000000000000000081526004018080602001828103825260148152602001807f457363726f7720646f65736e277420657869737400000000000000000000000081525060200191505060405180910390fd5b8160008082815260200190815260200160002060009054906101000a900473ffffffffffffffffffffffffffffffffffffffff1673ffffffffffffffffffffffffffffffffffffffff163373ffffffffffffffffffffffffffffffffffffffff161415156107bb576040517f08c379a00000000000000000000000000000000000000000000000000000000081526004018080602001828103825260168152602001807f4f6e6c79206f776e65722063616e20657865637574650000000000000000000081525060200191505060405180910390fd5b600060048111156107c857fe5b6001600085815260200190815260200160002060000160009054906101000a900460ff1660048111156107f757fe5b148061083c57506001600481111561080b57fe5b6001600085815260200190815260200160002060000160009054906101000a900460ff16600481111561083a57fe5b145b8061088057506003600481111561084f57fe5b6001600085815260200190815260200160002060000160009054906101000a900460ff16600481111561087e57fe5b145b15156108f4576040517f08c379a000000000000000000000000000000000000000000000000000000000815260040180806020018281038252601c8152602001807f53686f756c6420626520616374697665206f7220726566756e6465640000000081525060200191505060405180910390fd5b60006001600085815260200190815260200160002060010154905060006001600086815260200190815260200160002060000160019054906101000a900473ffffffffffffffffffffffffffffffffffffffff16905060006001600087815260200190815260200160002060000160006101000a81548160ff0219169083600481111561097d57fe5b02179055506000600160008781526020019081526020016000206003018190555060006001600087815260200190815260200160002060020160006101000a81548173ffffffffffffffffffffffffffffffffffffffff021916908373ffffffffffffffffffffffffffffffffffffffff16021790555060006001600087815260200190815260200160002060000160016101000a81548173ffffffffffffffffffffffffffffffffffffffff021916908373ffffffffffffffffffffffffffffffffffffffff160217905550600060016000878152602001908152602001600020600101819055506000600160008781526020019081526020016000206004018190555060006001600087815260200190815260200160002060050181905550610aa83386612122565b8073ffffffffffffffffffffffffffffffffffffffff163373ffffffffffffffffffffffffffffffffffffffff167f08fb334744294389c9155d95ec13a6f5a5d81f5c0059970de856504bb9b9538e846040518082815260200191505060405180910390a38073ffffffffffffffffffffffffffffffffffffffff166323b872dd3033856040518463ffffffff167c0100000000000000000000000000000000000000000000000000000000028152600401808473ffffffffffffffffffffffffffffffffffffffff1673ffffffffffffffffffffffffffffffffffffffff1681526020018373ffffffffffffffffffffffffffffffffffffffff1673ffffffffffffffffffffffffffffffffffffffff1681526020018281526020019350505050600060405180830381600087803b158015610be457600080fd5b505af1158015610bf8573d6000803e3d6000fd5b505050505050505050565b600060026004811115610c1257fe5b6001600084815260200190815260200160002060000160009054906101000a900460ff166004811115610c4157fe5b148015610c635750600160008381526020019081526020016000206005015443115b9050919050565b60006020528060005260406000206000915054906101000a900473ffffffffffffffffffffffffffffffffffffffff1681565b80600073ffffffffffffffffffffffffffffffffffffffff1660008083815260200190815260200160002060009054906101000a900473ffffffffffffffffffffffffffffffffffffffff1673ffffffffffffffffffffffffffffffffffffffff1614151515610d75576040517f08c379a00000000000000000000000000000000000000000000000000000000081526004018080602001828103825260148152602001807f457363726f7720646f65736e277420657869737400000000000000000000000081525060200191505060405180910390fd5b8160008082815260200190815260200160002060009054906101000a900473ffffffffffffffffffffffffffffffffffffffff1673ffffffffffffffffffffffffffffffffffffffff163373ffffffffffffffffffffffffffffffffffffffff16141515610e4b576040517f08c379a00000000000000000000000000000000000000000000000000000000081526004018080602001828103825260168152602001807f4f6e6c79206f776e65722063616e20657865637574650000000000000000000081525060200191505060405180910390fd5b60026004811115610e5857fe5b6001600085815260200190815260200160002060000160009054906101000a900460ff166004811115610e8757fe5b141515610efc576040517f08c379a00000000000000000000000000000000000000000000000000000000081526004018080602001828103825260108152602001807f53686f756c642062652066756e6465640000000000000000000000000000000081525060200191505060405180910390fd5b6000349050600160008581526020019081526020016000206003015481141515610f71576040517f08c379a00000000000000000000000000000000000000000000000000000000081526004018080602001828103825260218152602001806122eb6021913960400191505060405180910390fd5b60036001600086815260200190815260200160002060000160006101000a81548160ff02191690836004811115610fa457fe5b0217905550600060016000868152602001908152602001600020600501819055506001600085815260200190815260200160002060000160019054906101000a900473ffffffffffffffffffffffffffffffffffffffff1673ffffffffffffffffffffffffffffffffffffffff163373ffffffffffffffffffffffffffffffffffffffff167f88808afc48888c0e3ec9c545474e31ce16f177be8d0c8ba3922274893615750e600160008881526020019081526020016000206001015484604051808381526020018281526020019250505060405180910390a36110bd6001600086815260200190815260200160002060020160009054906101000a900473ffffffffffffffffffffffffffffffffffffffff166121c6565b50505050565b8373ffffffffffffffffffffffffffffffffffffffff166301ffc9a76380ac58cd7c0100000000000000000000000000000000000000000000000000000000026040518263ffffffff167c010000000000000000000000000000000000000000000000000000000002815260040180827bffffffffffffffffffffffffffffffffffffffffffffffffffffffff19167bffffffffffffffffffffffffffffffffffffffffffffffffffffffff1916815260200191505060206040518083038186803b15801561119157600080fd5b505afa1580156111a5573d6000803e3d6000fd5b505050506040513d60208110156111bb57600080fd5b81019080805190602001909291905050501515611240576040517f08c379a00000000000000000000000000000000000000000000000000000000081526004018080602001828103825260108152602001807f49535f4e4f545f3732315f544f4b454e0000000000000000000000000000000081525060200191505060405180910390fd5b6000849050600061125182866116c4565b9050600073ffffffffffffffffffffffffffffffffffffffff1660008083815260200190815260200160002060009054906101000a900473ffffffffffffffffffffffffffffffffffffffff1673ffffffffffffffffffffffffffffffffffffffff16141515611329576040517f08c379a000000000000000000000000000000000000000000000000000000000815260040180806020018281038252600d8152602001807f457363726f77206578697374730000000000000000000000000000000000000081525060200191505060405180910390fd5b6000600481111561133657fe5b6001600083815260200190815260200160002060000160009054906101000a900460ff16600481111561136557fe5b14806113a9575060048081111561137857fe5b6001600083815260200190815260200160002060000160009054906101000a900460ff1660048111156113a757fe5b145b151561141d576040517f08c379a00000000000000000000000000000000000000000000000000000000081526004018080602001828103825260108152602001807f457363726f77206973206163746976650000000000000000000000000000000081525060200191505060405180910390fd5b60008414151515611479576040517f08c379a000000000000000000000000000000000000000000000000000000000815260040180806020018281038252602281526020018061230c6022913960400191505060405180910390fd5b600180600083815260200190815260200160002060000160006101000a81548160ff021916908360048111156114ab57fe5b0217905550836001600083815260200190815260200160002060030181905550816001600083815260200190815260200160002060000160016101000a81548173ffffffffffffffffffffffffffffffffffffffff021916908373ffffffffffffffffffffffffffffffffffffffff1602179055508460016000838152602001908152602001600020600101819055508260016000838152602001908152602001600020600401819055506115603382612210565b8173ffffffffffffffffffffffffffffffffffffffff163373ffffffffffffffffffffffffffffffffffffffff167f510b5a5bf7aad4dae8e57ab02f4f3a1f8a4d12e36ae9312f7460288bfb244c7d8787604051808381526020018281526020019250505060405180910390a38573ffffffffffffffffffffffffffffffffffffffff166323b872dd3330886040518463ffffffff167c0100000000000000000000000000000000000000000000000000000000028152600401808473ffffffffffffffffffffffffffffffffffffffff1673ffffffffffffffffffffffffffffffffffffffff1681526020018373ffffffffffffffffffffffffffffffffffffffff1673ffffffffffffffffffffffffffffffffffffffff1681526020018281526020019350505050600060405180830381600087803b1580156116a457600080fd5b505af11580156116b8573d6000803e3d6000fd5b50505050505050505050565b60008282604051602001808373ffffffffffffffffffffffffffffffffffffffff1673ffffffffffffffffffffffffffffffffffffffff166c010000000000000000000000000281526014018281526020019250505060405160208183030381529060405280519060200120905092915050565b60016020528060005260406000206000915090508060000160009054906101000a900460ff16908060000160019054906101000a900473ffffffffffffffffffffffffffffffffffffffff16908060010154908060020160009054906101000a900473ffffffffffffffffffffffffffffffffffffffff16908060030154908060040154908060050154905087565b80600073ffffffffffffffffffffffffffffffffffffffff1660008083815260200190815260200160002060009054906101000a900473ffffffffffffffffffffffffffffffffffffffff1673ffffffffffffffffffffffffffffffffffffffff161415151561189f576040517f08c379a00000000000000000000000000000000000000000000000000000000081526004018080602001828103825260148152602001807f457363726f7720646f65736e277420657869737400000000000000000000000081525060200191505060405180910390fd5b816001600082815260200190815260200160002060020160009054906101000a900473ffffffffffffffffffffffffffffffffffffffff1673ffffffffffffffffffffffffffffffffffffffff163373ffffffffffffffffffffffffffffffffffffffff16141515611979576040517f08c379a00000000000000000000000000000000000000000000000000000000081526004018080602001828103825260178152602001807f4f6e6c792066756e6465722063616e206578656375746500000000000000000081525060200191505060405180910390fd5b61198283610c03565b15156119d9576040517f08c379a00000000000000000000000000000000000000000000000000000000081526004018080602001828103825260378152602001806122b46037913960400191505060405180910390fd5b60006001600085815260200190815260200160002060010154905060006001600086815260200190815260200160002060000160019054906101000a900473ffffffffffffffffffffffffffffffffffffffff16905060006001600087815260200190815260200160002060000160006101000a81548160ff02191690836004811115611a6257fe5b02179055506000600160008781526020019081526020016000206003018190555060006001600087815260200190815260200160002060020160006101000a81548173ffffffffffffffffffffffffffffffffffffffff021916908373ffffffffffffffffffffffffffffffffffffffff16021790555060006001600087815260200190815260200160002060000160016101000a81548173ffffffffffffffffffffffffffffffffffffffff021916908373ffffffffffffffffffffffffffffffffffffffff160217905550600060016000878152602001908152602001600020600101819055506000600160008781526020019081526020016000206004018190555060006001600087815260200190815260200160002060050181905550611b8d3386612122565b8073ffffffffffffffffffffffffffffffffffffffff163373ffffffffffffffffffffffffffffffffffffffff167ff7a40077ff7a04c7e61f6f26fb13774259ddf1b6bce9ecf26a8276cdd3992683846040518082815260200191505060405180910390a38073ffffffffffffffffffffffffffffffffffffffff166323b872dd3033856040518463ffffffff167c0100000000000000000000000000000000000000000000000000000000028152600401808473ffffffffffffffffffffffffffffffffffffffff1673ffffffffffffffffffffffffffffffffffffffff1681526020018373ffffffffffffffffffffffffffffffffffffffff1673ffffffffffffffffffffffffffffffffffffffff1681526020018281526020019350505050600060405180830381600087803b158015611cc957600080fd5b505af1158015611cdd573d6000803e3d6000fd5b505050505050505050565b80600073ffffffffffffffffffffffffffffffffffffffff1660008083815260200190815260200160002060009054906101000a900473ffffffffffffffffffffffffffffffffffffffff1673ffffffffffffffffffffffffffffffffffffffff1614151515611dc0576040517f08c379a00000000000000000000000000000000000000000000000000000000081526004018080602001828103825260148152602001807f457363726f7720646f65736e277420657869737400000000000000000000000081525060200191505060405180910390fd5b8160008082815260200190815260200160002060009054906101000a900473ffffffffffffffffffffffffffffffffffffffff1673ffffffffffffffffffffffffffffffffffffffff163373ffffffffffffffffffffffffffffffffffffffff1614151515611e97576040517f08c379a00000000000000000000000000000000000000000000000000000000081526004018080602001828103825260148152602001807f4f776e65722063616e6e6f74206578656375746500000000000000000000000081525060200191505060405180910390fd5b60016004811115611ea457fe5b6001600085815260200190815260200160002060000160009054906101000a900460ff166004811115611ed357fe5b141515611f48576040517f08c379a00000000000000000000000000000000000000000000000000000000081526004018080602001828103825260108152602001807f53686f756c64206265206163746976650000000000000000000000000000000081525060200191505060405180910390fd5b600034905060026001600086815260200190815260200160002060000160006101000a81548160ff02191690836004811115611f8057fe5b0217905550336001600086815260200190815260200160002060020160006101000a81548173ffffffffffffffffffffffffffffffffffffffff021916908373ffffffffffffffffffffffffffffffffffffffff1602179055508060016000868152602001908152602001600020600301819055506001600085815260200190815260200160002060040154430160016000868152602001908152602001600020600501819055506001600085815260200190815260200160002060000160019054906101000a900473ffffffffffffffffffffffffffffffffffffffff1673ffffffffffffffffffffffffffffffffffffffff163373ffffffffffffffffffffffffffffffffffffffff167f73884fbf40e5433ea6f75b9343f3208649c9b8430641c927f0ed89d4eac6945b600160008881526020019081526020016000206001015484604051808381526020018281526020019250505060405180910390a361211c60008086815260200190815260200160002060009054906101000a900473ffffffffffffffffffffffffffffffffffffffff166121c6565b50505050565b600080600083815260200190815260200160002060006101000a81548173ffffffffffffffffffffffffffffffffffffffff021916908373ffffffffffffffffffffffffffffffffffffffff1602179055508173ffffffffffffffffffffffffffffffffffffffff167f6ecbc70c26b02b821204839571ea973742fdc445dbfd00b71c513370f5d458ad826040518082815260200191505060405180910390a25050565b8073ffffffffffffffffffffffffffffffffffffffff166108fc349081150290604051600060405180830381858888f1935050505015801561220c573d6000803e3d6000fd5b5050565b8160008083815260200190815260200160002060006101000a81548173ffffffffffffffffffffffffffffffffffffffff021916908373ffffffffffffffffffffffffffffffffffffffff1602179055508173ffffffffffffffffffffffffffffffffffffffff167f07c395f9699f5c4d4e90df65ab0ea5d135089f597219b61c81445b8785c75b58826040518082815260200191505060405180910390a2505056fe497420697320706f737369626c6520746f20636c61696d2066756e64656420657363726f77732061667465722065787069726174696f6e56616c75652073686f756c6420626520657175616c20746f6b656e2076616c7565416d6f756e742073686f756c642062652067726561746572207468616e207a65726fa165627a7a7230582031d00a3efc02c9270f9dc2b634ba012ec1dcdb5bc3910135c1df6e6c93676a7f0029",
  "source": "pragma solidity ^0.5.2;\r\n\r\nimport \"./../client/node_modules/openzeppelin-solidity/contracts/token/ERC721/IERC721Receiver.sol\";\r\nimport \"./ERC721Escrow.sol\";\r\n\r\ncontract ERC721FundableEscrow is ERC721Escrow, IERC721Receiver {\r\n    enum State { Init, Active, Funded, Refunded, Closed }\r\n    struct Escrow {\r\n        State state;\r\n        address token;\r\n        uint256 tokenId;\r\n        address funder;\r\n        uint256 amount;\r\n        uint256 duration;\r\n        uint256 expiration;\r\n    }\r\n\r\n    event Published(address indexed owner, address indexed token, uint256 tokenId, uint256 weiAmount);\r\n    event Unpublished(address indexed owner, address indexed token, uint256 tokenId);\r\n    event Funded(address indexed payee, address indexed token, uint256 tokenId, uint256 weiAmount);\r\n    event Refunded(address indexed payee, address indexed token, uint256 tokenId, uint256 weiAmount);\r\n    event Claimed(address indexed to, address indexed token, uint256 tokenId);\r\n\r\n    bytes4 private constant _INTERFACE_ID_ERC721 = 0x80ac58cd;\r\n    /*\r\n     * 0x80ac58cd ===\r\n     *     bytes4(keccak256('balanceOf(address)')) ^\r\n     *     bytes4(keccak256('ownerOf(uint256)')) ^\r\n     *     bytes4(keccak256('approve(address,uint256)')) ^\r\n     *     bytes4(keccak256('getApproved(uint256)')) ^\r\n     *     bytes4(keccak256('setApprovalForAll(address,bool)')) ^\r\n     *     bytes4(keccak256('isApprovedForAll(address,address)')) ^\r\n     *     bytes4(keccak256('transferFrom(address,address,uint256)')) ^\r\n     *     bytes4(keccak256('safeTransferFrom(address,address,uint256)')) ^\r\n     *     bytes4(keccak256('safeTransferFrom(address,address,uint256,bytes)'))\r\n     */\r\n\r\n    mapping(bytes32 => Escrow) public _escrows;\r\n\r\n    modifier onlyLender(bytes32 key) {\r\n        require(msg.sender == _escrows[key].funder, \"Only funder can execute\");\r\n        _;\r\n    }\r\n\r\n    function getKey(address token, uint256 tokenId) public pure returns(bytes32) {\r\n        return keccak256(abi.encodePacked(token, tokenId));\r\n    }\r\n\r\n    function publish(IERC721 token, uint256 tokenId, uint256 weiAmount, uint256 duration) public {\r\n        require(token.supportsInterface(_INTERFACE_ID_ERC721), \"IS_NOT_721_TOKEN\");\r\n\r\n        address tokenAddress = address(token);\r\n        bytes32 key = getKey(tokenAddress, tokenId);\r\n        require(_owners[key] == address(0), \"Escrow exists\");\r\n        require(_escrows[key].state == State.Init ||\r\n            _escrows[key].state == State.Closed, \"Escrow is active\");\r\n        require(weiAmount != 0, \"Amount should be greater than zero\");\r\n\r\n        _escrows[key].state = State.Active;\r\n        _escrows[key].amount = weiAmount;\r\n        _escrows[key].token = tokenAddress;\r\n        _escrows[key].tokenId = tokenId;\r\n        _escrows[key].duration = duration;\r\n        _deposit(msg.sender, key);\r\n\r\n        emit Published(msg.sender, tokenAddress, tokenId, weiAmount);\r\n\r\n        // TODO: use safe transfer\r\n        token.transferFrom(msg.sender, address(this), tokenId);\r\n    }\r\n\r\n    function unpublish(bytes32 key) public exists(key) onlyOwner(key) {\r\n        require(_escrows[key].state == State.Init ||\r\n            _escrows[key].state == State.Active ||\r\n            _escrows[key].state == State.Refunded, \"Should be active or refunded\");\r\n\r\n        uint256 tokenId = _escrows[key].tokenId;\r\n        address tokenAddress = _escrows[key].token;\r\n\r\n        _escrows[key].state = State.Init;\r\n        _escrows[key].amount = 0;\r\n        _escrows[key].funder = address(0);\r\n        _escrows[key].token = address(0);\r\n        _escrows[key].tokenId = 0;\r\n        _escrows[key].duration = 0;\r\n        _escrows[key].expiration = 0;\r\n        _withdraw(msg.sender, key);\r\n\r\n        emit Unpublished(msg.sender, tokenAddress, tokenId);\r\n\r\n        IERC721(tokenAddress).transferFrom(address(this), msg.sender, tokenId);\r\n    }\r\n\r\n    function fund(bytes32 key) public payable exists(key) notOwner(key) {\r\n        require(_escrows[key].state == State.Active, \"Should be active\");\r\n        uint256 amount = msg.value;\r\n        // require(amount == _escrows[key].amount, \"Value should be equal token value\");\r\n\r\n        _escrows[key].state = State.Funded;\r\n        _escrows[key].funder = msg.sender;\r\n        _escrows[key].amount = amount;\r\n        _escrows[key].expiration = block.number + _escrows[key].duration;\r\n        emit Funded(msg.sender, _escrows[key].token, _escrows[key].tokenId, amount);\r\n\r\n        _forward(_owners[key]);\r\n    }\r\n\r\n    function refund(bytes32 key) public payable exists(key) onlyOwner(key) {\r\n        require(_escrows[key].state == State.Funded, \"Should be funded\");\r\n        uint256 amount = msg.value;\r\n        require(amount == _escrows[key].amount, \"Value should be equal token value\");\r\n\r\n        _escrows[key].state = State.Refunded;\r\n        _escrows[key].expiration = 0;\r\n        emit Refunded(msg.sender, _escrows[key].token, _escrows[key].tokenId, amount);\r\n\r\n        _forward(_escrows[key].funder);\r\n    }\r\n\r\n    function claim(bytes32 key) public exists(key) onlyLender(key) {\r\n        // require(_escrows[key].state == State.Funded, \"Should be funded\");\r\n        require(isAllowClaim(key), \"It is possible to claim funded escrows after expiration\");\r\n\r\n        uint256 tokenId = _escrows[key].tokenId;\r\n        address tokenAddress = _escrows[key].token;\r\n\r\n        _escrows[key].state = State.Init;\r\n        _escrows[key].amount = 0;\r\n        _escrows[key].funder = address(0);\r\n        _escrows[key].token = address(0);\r\n        _escrows[key].tokenId = 0;\r\n        _escrows[key].duration = 0;\r\n        _escrows[key].expiration = 0;\r\n        _withdraw(msg.sender, key);\r\n\r\n        emit Claimed(msg.sender, tokenAddress, tokenId);\r\n\r\n        IERC721(tokenAddress).transferFrom(address(this), msg.sender, tokenId);\r\n    }\r\n\r\n    function isAllowClaim(bytes32 key) public view returns (bool) {\r\n        return _escrows[key].state == State.Funded && block.number > _escrows[key].expiration;\r\n    }\r\n\r\n    function onERC721Received(address, address, uint256, bytes memory) public returns (bytes4) {\r\n        return this.onERC721Received.selector;\r\n    }\r\n\r\n    // TODO: change from push to pull approach\r\n    function _forward(address to) internal {\r\n        address(uint160(to)).transfer(msg.value);\r\n    }\r\n}",
  "sourcePath": "C:/Users/SergiiBomko/Documents/GitHub/lombard-bcua-hack/contracts/ERC721FundableEscrow.sol",
  "compiler": {
    "name": "solc",
    "version": "0.5.2+commit.1df8f40c.Emscripten.clang"
  },
  "schemaVersion": "3.0.11",
  "updatedAt": "2019-09-22T09:09:33.966Z",
  "devdoc": {
    "methods": {}
  },
  "userdoc": {
    "methods": {}
  }
}